{
  "address": "0xe7f1725E7734CE288F8367e1Bb143E90bb3F0512",
  "abi": [
    {
      "inputs": [
        {
          "internalType": "address",
          "name": "priceFeedAddress",
          "type": "address"
        }
      ],
      "stateMutability": "nonpayable",
      "type": "constructor"
    },
    {
      "inputs": [],
      "name": "FundMe__NotOwner",
      "type": "error"
    },
    {
      "stateMutability": "payable",
      "type": "fallback"
    },
    {
      "inputs": [],
      "name": "MINIMUM_USD",
      "outputs": [
        {
          "internalType": "uint256",
          "name": "",
          "type": "uint256"
        }
      ],
      "stateMutability": "view",
      "type": "function"
    },
    {
      "inputs": [],
      "name": "cheaperWithdraw",
      "outputs": [],
      "stateMutability": "payable",
      "type": "function"
    },
    {
      "inputs": [],
      "name": "fund",
      "outputs": [],
      "stateMutability": "payable",
      "type": "function"
    },
    {
      "inputs": [
        {
          "internalType": "address",
          "name": "funder",
          "type": "address"
        }
      ],
      "name": "getAddressToAmountFunded",
      "outputs": [
        {
          "internalType": "uint256",
          "name": "",
          "type": "uint256"
        }
      ],
      "stateMutability": "view",
      "type": "function"
    },
    {
      "inputs": [
        {
          "internalType": "uint256",
          "name": "index",
          "type": "uint256"
        }
      ],
      "name": "getFunder",
      "outputs": [
        {
          "internalType": "address",
          "name": "",
          "type": "address"
        }
      ],
      "stateMutability": "view",
      "type": "function"
    },
    {
      "inputs": [],
      "name": "getOwner",
      "outputs": [
        {
          "internalType": "address",
          "name": "",
          "type": "address"
        }
      ],
      "stateMutability": "view",
      "type": "function"
    },
    {
      "inputs": [],
      "name": "getPriceFeed",
      "outputs": [
        {
          "internalType": "contract AggregatorV3Interface",
          "name": "",
          "type": "address"
        }
      ],
      "stateMutability": "view",
      "type": "function"
    },
    {
      "inputs": [],
      "name": "s_priceFeed",
      "outputs": [
        {
          "internalType": "contract AggregatorV3Interface",
          "name": "",
          "type": "address"
        }
      ],
      "stateMutability": "view",
      "type": "function"
    },
    {
      "inputs": [],
      "name": "withdraw",
      "outputs": [],
      "stateMutability": "payable",
      "type": "function"
    },
    {
      "stateMutability": "payable",
      "type": "receive"
    }
  ],
  "transactionHash": "0x425057c91bcbcd339941a02bbdfe5d22ffb19c16f0fcaea91799bde531a7030f",
  "args": [
    "0x5FbDB2315678afecb367f032d93F642f64180aa3"
  ],
  "numDeployments": 1,
  "solcInputHash": "b52fd7197926bd72cf784c28b285dc9c",
  "bytecode": "0x60806040523480156200001157600080fd5b506040516200133a3803806200133a83398181016040528101906200003791906200012a565b33600360006101000a81548173ffffffffffffffffffffffffffffffffffffffff021916908373ffffffffffffffffffffffffffffffffffffffff16021790555080600260006101000a81548173ffffffffffffffffffffffffffffffffffffffff021916908373ffffffffffffffffffffffffffffffffffffffff160217905550506200015c565b600080fd5b600073ffffffffffffffffffffffffffffffffffffffff82169050919050565b6000620000f282620000c5565b9050919050565b6200010481620000e5565b81146200011057600080fd5b50565b6000815190506200012481620000f9565b92915050565b600060208284031215620001435762000142620000c0565b5b6000620001538482850162000113565b91505092915050565b6111ce806200016c6000396000f3fe60806040526004361061008a5760003560e01c8063893d20e811610059578063893d20e8146101405780639e87a5cd1461016b578063b60d428814610196578063be2693f0146101a0578063d7b4750c146101aa57610099565b80630343fb25146100a35780630ec3b027146100e05780633ccfd60b1461010b5780636b69a5921461011557610099565b36610099576100976101e7565b005b6100a16101e7565b005b3480156100af57600080fd5b506100ca60048036038101906100c59190610b06565b610321565b6040516100d79190610b4c565b60405180910390f35b3480156100ec57600080fd5b506100f5610369565b6040516101029190610bc6565b60405180910390f35b61011361038f565b005b34801561012157600080fd5b5061012a6105d1565b6040516101379190610b4c565b60405180910390f35b34801561014c57600080fd5b506101556105de565b6040516101629190610bf0565b60405180910390f35b34801561017757600080fd5b50610180610608565b60405161018d9190610bc6565b60405180910390f35b61019e6101e7565b005b6101a8610632565b005b3480156101b657600080fd5b506101d160048036038101906101cc9190610c37565b6108d8565b6040516101de9190610bf0565b60405180910390f35b6802b5e3af16b1880000610226600260009054906101000a900473ffffffffffffffffffffffffffffffffffffffff163461092090919063ffffffff16565b1015610267576040517f08c379a000000000000000000000000000000000000000000000000000000000815260040161025e90610cc1565b60405180910390fd5b346000803373ffffffffffffffffffffffffffffffffffffffff1673ffffffffffffffffffffffffffffffffffffffff16815260200190815260200160002060008282546102b59190610d10565b925050819055506001339080600181540180825580915050600190039060005260206000200160009091909190916101000a81548173ffffffffffffffffffffffffffffffffffffffff021916908373ffffffffffffffffffffffffffffffffffffffff160217905550565b60008060008373ffffffffffffffffffffffffffffffffffffffff1673ffffffffffffffffffffffffffffffffffffffff168152602001908152602001600020549050919050565b600260009054906101000a900473ffffffffffffffffffffffffffffffffffffffff1681565b600360009054906101000a900473ffffffffffffffffffffffffffffffffffffffff1673ffffffffffffffffffffffffffffffffffffffff163373ffffffffffffffffffffffffffffffffffffffff1614610416576040517f579610db00000000000000000000000000000000000000000000000000000000815260040160405180910390fd5b60005b6001805490508110156104c15760006001828154811061043c5761043b610d66565b5b9060005260206000200160009054906101000a900473ffffffffffffffffffffffffffffffffffffffff16905060008060008373ffffffffffffffffffffffffffffffffffffffff1673ffffffffffffffffffffffffffffffffffffffff168152602001908152602001600020819055505080806104b990610d95565b915050610419565b50600067ffffffffffffffff8111156104dd576104dc610dde565b5b60405190808252806020026020018201604052801561050b5781602001602082028036833780820191505090505b50600190805190602001906105219291906109fc565b5060003373ffffffffffffffffffffffffffffffffffffffff164760405161054890610e3e565b60006040518083038185875af1925050503d8060008114610585576040519150601f19603f3d011682016040523d82523d6000602084013e61058a565b606091505b50509050806105ce576040517f08c379a00000000000000000000000000000000000000000000000000000000081526004016105c590610e9f565b60405180910390fd5b50565b6802b5e3af16b188000081565b6000600360009054906101000a900473ffffffffffffffffffffffffffffffffffffffff16905090565b6000600260009054906101000a900473ffffffffffffffffffffffffffffffffffffffff16905090565b600360009054906101000a900473ffffffffffffffffffffffffffffffffffffffff1673ffffffffffffffffffffffffffffffffffffffff163373ffffffffffffffffffffffffffffffffffffffff16146106b9576040517f579610db00000000000000000000000000000000000000000000000000000000815260040160405180910390fd5b6000600180548060200260200160405190810160405280929190818152602001828054801561073d57602002820191906000526020600020905b8160009054906101000a900473ffffffffffffffffffffffffffffffffffffffff1673ffffffffffffffffffffffffffffffffffffffff16815260200190600101908083116106f3575b5050505050905060005b81518110156107c757600082828151811061076557610764610d66565b5b6020026020010151905060008060008373ffffffffffffffffffffffffffffffffffffffff1673ffffffffffffffffffffffffffffffffffffffff168152602001908152602001600020819055505080806107bf90610d95565b915050610747565b50600067ffffffffffffffff8111156107e3576107e2610dde565b5b6040519080825280602002602001820160405280156108115781602001602082028036833780820191505090505b50600190805190602001906108279291906109fc565b5060003373ffffffffffffffffffffffffffffffffffffffff164760405161084e90610e3e565b60006040518083038185875af1925050503d806000811461088b576040519150601f19603f3d011682016040523d82523d6000602084013e610890565b606091505b50509050806108d4576040517f08c379a00000000000000000000000000000000000000000000000000000000081526004016108cb90610e9f565b60405180910390fd5b5050565b6000600182815481106108ee576108ed610d66565b5b9060005260206000200160009054906101000a900473ffffffffffffffffffffffffffffffffffffffff169050919050565b60008061092c8361095c565b90506000670de0b6b3a764000085836109459190610ebf565b61094f9190610f48565b9050809250505092915050565b6000808273ffffffffffffffffffffffffffffffffffffffff1663feaf968c6040518163ffffffff1660e01b815260040160a06040518083038186803b1580156109a557600080fd5b505afa1580156109b9573d6000803e3d6000fd5b505050506040513d601f19601f820116820180604052508101906109dd9190611006565b5050509150506402540be400816109f49190611081565b915050919050565b828054828255906000526020600020908101928215610a75579160200282015b82811115610a745782518260006101000a81548173ffffffffffffffffffffffffffffffffffffffff021916908373ffffffffffffffffffffffffffffffffffffffff16021790555091602001919060010190610a1c565b5b509050610a829190610a86565b5090565b5b80821115610a9f576000816000905550600101610a87565b5090565b600080fd5b600073ffffffffffffffffffffffffffffffffffffffff82169050919050565b6000610ad382610aa8565b9050919050565b610ae381610ac8565b8114610aee57600080fd5b50565b600081359050610b0081610ada565b92915050565b600060208284031215610b1c57610b1b610aa3565b5b6000610b2a84828501610af1565b91505092915050565b6000819050919050565b610b4681610b33565b82525050565b6000602082019050610b616000830184610b3d565b92915050565b6000819050919050565b6000610b8c610b87610b8284610aa8565b610b67565b610aa8565b9050919050565b6000610b9e82610b71565b9050919050565b6000610bb082610b93565b9050919050565b610bc081610ba5565b82525050565b6000602082019050610bdb6000830184610bb7565b92915050565b610bea81610ac8565b82525050565b6000602082019050610c056000830184610be1565b92915050565b610c1481610b33565b8114610c1f57600080fd5b50565b600081359050610c3181610c0b565b92915050565b600060208284031215610c4d57610c4c610aa3565b5b6000610c5b84828501610c22565b91505092915050565b600082825260208201905092915050565b7f596f75206e65656420746f207370656e64206d6f726520455448210000000000600082015250565b6000610cab601b83610c64565b9150610cb682610c75565b602082019050919050565b60006020820190508181036000830152610cda81610c9e565b9050919050565b7f4e487b7100000000000000000000000000000000000000000000000000000000600052601160045260246000fd5b6000610d1b82610b33565b9150610d2683610b33565b9250827fffffffffffffffffffffffffffffffffffffffffffffffffffffffffffffffff03821115610d5b57610d5a610ce1565b5b828201905092915050565b7f4e487b7100000000000000000000000000000000000000000000000000000000600052603260045260246000fd5b6000610da082610b33565b91507fffffffffffffffffffffffffffffffffffffffffffffffffffffffffffffffff821415610dd357610dd2610ce1565b5b600182019050919050565b7f4e487b7100000000000000000000000000000000000000000000000000000000600052604160045260246000fd5b600081905092915050565b50565b6000610e28600083610e0d565b9150610e3382610e18565b600082019050919050565b6000610e4982610e1b565b9150819050919050565b7f43616c6c206661696c6564000000000000000000000000000000000000000000600082015250565b6000610e89600b83610c64565b9150610e9482610e53565b602082019050919050565b60006020820190508181036000830152610eb881610e7c565b9050919050565b6000610eca82610b33565b9150610ed583610b33565b9250817fffffffffffffffffffffffffffffffffffffffffffffffffffffffffffffffff0483118215151615610f0e57610f0d610ce1565b5b828202905092915050565b7f4e487b7100000000000000000000000000000000000000000000000000000000600052601260045260246000fd5b6000610f5382610b33565b9150610f5e83610b33565b925082610f6e57610f6d610f19565b5b828204905092915050565b600069ffffffffffffffffffff82169050919050565b610f9881610f79565b8114610fa357600080fd5b50565b600081519050610fb581610f8f565b92915050565b6000819050919050565b610fce81610fbb565b8114610fd957600080fd5b50565b600081519050610feb81610fc5565b92915050565b60008151905061100081610c0b565b92915050565b600080600080600060a0868803121561102257611021610aa3565b5b600061103088828901610fa6565b955050602061104188828901610fdc565b945050604061105288828901610ff1565b935050606061106388828901610ff1565b925050608061107488828901610fa6565b9150509295509295909350565b600061108c82610fbb565b915061109783610fbb565b9250827f7fffffffffffffffffffffffffffffffffffffffffffffffffffffffffffffff04821160008413600084131616156110d6576110d5610ce1565b5b817f8000000000000000000000000000000000000000000000000000000000000000058312600084126000841316161561111357611112610ce1565b5b827f800000000000000000000000000000000000000000000000000000000000000005821260008413600084121616156111505761114f610ce1565b5b827f7fffffffffffffffffffffffffffffffffffffffffffffffffffffffffffffff058212600084126000841216161561118d5761118c610ce1565b5b82820290509291505056fea26469706673582212205cb51d2f0518c37f07bc4da33e3f00f211b7de4927efabd4210307f190925f0464736f6c63430008080033",
  "devdoc": {
    "kind": "dev",
    "methods": {},
    "version": 1
  },
  "userdoc": {
    "kind": "user",
    "methods": {},
    "version": 1
  },
  "storageLayout": {
    "storage": [
      {
        "astId": 58,
        "contract": "contracts/FundMe.sol:FundMe",
        "label": "s_addressToAmountFunded",
        "offset": 0,
        "slot": "0",
        "type": "t_mapping(t_address,t_uint256)"
      },
      {
        "astId": 61,
        "contract": "contracts/FundMe.sol:FundMe",
        "label": "s_funders",
        "offset": 0,
        "slot": "1",
        "type": "t_array(t_address)dyn_storage"
      },
      {
        "astId": 64,
        "contract": "contracts/FundMe.sol:FundMe",
        "label": "s_priceFeed",
        "offset": 0,
        "slot": "2",
        "type": "t_contract(AggregatorV3Interface)45"
      },
      {
        "astId": 66,
        "contract": "contracts/FundMe.sol:FundMe",
        "label": "i_owner",
        "offset": 0,
        "slot": "3",
        "type": "t_address"
      }
    ],
    "types": {
      "t_address": {
        "encoding": "inplace",
        "label": "address",
        "numberOfBytes": "20"
      },
      "t_array(t_address)dyn_storage": {
        "base": "t_address",
        "encoding": "dynamic_array",
        "label": "address[]",
        "numberOfBytes": "32"
      },
      "t_contract(AggregatorV3Interface)45": {
        "encoding": "inplace",
        "label": "contract AggregatorV3Interface",
        "numberOfBytes": "20"
      },
      "t_mapping(t_address,t_uint256)": {
        "encoding": "mapping",
        "key": "t_address",
        "label": "mapping(address => uint256)",
        "numberOfBytes": "32",
        "value": "t_uint256"
      },
      "t_uint256": {
        "encoding": "inplace",
        "label": "uint256",
        "numberOfBytes": "32"
      }
    }
  }
}